:100000000C9475010C9492010C9492010C94920141
:100010000C9492010C9492010C9492010C94920114
:100020000C9492010C9492010C94421F0C94162093
:100030000C94781A0C9492010C9492010C949201F5
:100040000C9492010C9492010C9492010C949201E4
:100050000C9492010C94F01A0C9492010C9492015D
:100060000C9492010C9492010C9492010C949201C4
:100070000C9492010C9492010C9492010C949201B4
:100080000C9492010C9492010C9492010C949201A4
:100090000C9492010C9492010C9492010C94920194
:1000A0000C9492010C9492010C949201AC00AE005D
:1000B000AB00AA00A800A900A500A600A7000000A8
:1000C0000000000000002A2B2800000000000000B3
:1000D00000000000000000000029000000002C1EAD
:1000E0003420212224342627252E362D3738271E6A
:1000F0001F202122232425263333362E37381F0490
:1001000005060708090A0B0C0D0E0F101112131427
:1001100015161718191A1B1C1D2F3130232D3504E5
:1001200005060708090A0B0C0D0E0F101112131407
:1001300015161718191A1B1C1D2F3130354C0000CD
:1001400000000000000000000000000000000000AF
:10015000000000000000000000000000000000009F
:1001600000007E0F00D4FFFFFFC7000000780A03E5
:1001700039004B006500790000002203420069004D
:10018000730068006F00700020004B00650079006C
:1001900062006F00610072006400730000000403DD
:1001A000090409023B00020100A0FA090400000151
:1001B000030101000921110100012244000705810A
:1001C00003080001090401000103000000092111D6
:1001D00001000122B6000705820320000112010080
:1001E0000200000008EDFE07000100010200010509
:1001F000010902A10185020901A1000509190129CE
:1002000008150025019508750181020501093009CD
:10021000311581257F9502750881060938158125DC
:100220007F950175088106050C0A38021581257F26
:10023000950175088106C0C005010980A1018503EB
:1002400019012AB700150126B70095017510810024
:10025000C0050C0901A101850419012AA00215019C
:1002600026A002950175108100C005010906A101B3
:100270008506050719E029E7150025019508750190
:1002800081020507190029EF1500250195F0750178
:10029000810205081901290595057501910295014D
:1002A00075039101C005010906A101050719E0299F
:1002B000E7150025019508750181029501750881F2
:1002C000010507190029FF150026FF00950675088E
:1002D00081000508190129051500250195057501FD
:1002E0009102950175039101C00011241FBECFEF4B
:1002F000DAE0DEBFCDBF11E0A0E0B1E0E6EAF5E470
:1003000002C005900D92A239B107D9F722E0A2E907
:10031000B1E001C01D92A938B207E1F70E94A31114
:100320000C948A220C940000811112C0633080F476
:10033000433070F4E42FF0E083E0689FE00DF11D9E
:100340001124EE0FFF1FE455FF4F859194910895FE
:1003500081E090E008950E94940108959C013A95EF
:1003600021153F4150F5FC01EE27F170BC016627D5
:100370007270AC01442754709C012227387094FF9E
:100380000EC080E1EF2B09F480E0672B09F080625A
:10039000452B09F08064232B89F08068089581E063
:1003A000EF2B09F480E0672B09F08260452B09F000
:1003B0008460232B19F08860089580E00895CF931E
:1003C000DF93EB010E94AE01FE010995DF91CF9111
:1003D0000895CF93DF93EC01805E9109089720F098
:1003E0006CEC76E0209711F46DE874E0CE010E9489
:1003F000DF018C2F0E94F003DF91CF910895CF93FE
:10040000DF93EC010E943904CE01805E91090897C8
:1004100020F063ED76E0209711F464E974E0CE01FA
:100420000E94DF01DF91CF9108950F931F93CF9327
:10043000DF938C01EB010E94E901209741F4C80190
:100440000E94FF01DF91CF911F910F9108958FE9D5
:100450009FE00197F1F700C000002197EECF70E018
:1004600060E08933910511F460E570E00E941502A7
:10047000089581E008950E94390208950E9439028A
:10048000089581E008950E94390208950E9439027A
:1004900008950E9446020895089508950E944C020E
:1004A000089508950895A6E0B0E0E9E5F2E00C941F
:1004B000E62149835A839E833091990189819A81EB
:1004C00031111AC03E81332399F0222389F00E9412
:1004D0003F08182F682F89819A810E941B08698123
:1004E0007A81812F0E945B0F2696E3E00C94022212
:1004F0000E942D08182FF3CF0E943F0869817A814E
:10050000F1CFFC01262F408151816281738184816A
:1005100095810E9453020895CF93DF93EC0161E02F
:100520000E948102BE010E943B02882359F061E0D3
:10053000CE010E948102BE010E943E028170DF91C5
:10054000CF91089580E0FACF0F931F93CF93DF935D
:10055000EC0160E00E9481028C01BE010E944D020C
:10056000BE01C8010E944E02DF91CF911F910F91F1
:10057000089521E030E0A90102C0440F551F8A957B
:10058000E2F7CA010E943D070895CF93C82F81E08A
:1005900090E00C2E02C0880F991F0A94E2F70E9487
:1005A000AE0C8C2F0E94B902CF91089581E008957E
:1005B0000E94D60208950E94D6020895CF93C82FB4
:1005C0000E94F0068C2F0E94D8028C2F0E94DB0222
:1005D0002FEF84E39CE0215080409040E1F700C081
:1005E0000000CF91089581E00E94DE020E94141B5A
:1005F000089580E00E94DE020E94251B08950F935B
:100600001F93CF93DF938C0161E00E948102EC0184
:10061000B8010E944302811106C080E0DF91CF91B2
:100620001F910F910895B801CE010E9449028823BD
:10063000A1F3B801CE010E94CB11882371F3B80158
:10064000CE010E94EA17882341F3B801CE010E942F
:100650007313882311F3B801CE010E944913882334
:10066000E1F2B801CE010E945F108823B1F2F801D7
:100670008581882361F0C330FCE7DF07E9F058F497
:10068000C115ECE7DE07A9F0C130DC47B9F0C801BD
:100690000E944102C3CFCB358CE7D807A9F0CC35F7
:1006A000ECE7DE0771F0CA35DC4789F70E94890C58
:1006B000EECF0E94F302B1CF0E94910C0E94F9028A
:1006C000ACCF0E947F0CE3CF0E948D0CE0CF0E9444
:1006D00051020E944B1A0E948B0308950E948F03BF
:1006E0000E9452020E94501A089581E008950895D0
:1006F000CF93DF93D82F0E947503C82F882319F05A
:100700008D2F0E9477038C2FDF91CF91089508954C
:100710000E947803089580E00E94880308950E9453
:1007200033180E9488030895CF930E943318C82F6E
:10073000809194018C1779F0C09394010E94E41A7F
:10074000609395017093960180939701909398011F
:100750008C2F0E948803CF910895ADE0B0E0E3EBC9
:10076000F3E00C94E721488759876A877B878C8759
:100770009D8791110E948F0B1F8286E0FE013896A3
:10078000DE01119601900D928A95E1F78D8181111C
:100790000DC029813A814B815C816D817E818F8181
:1007A0000E94D60A2D96E2E00C940322CE01019617
:1007B0000E948C028111EDCFF5CFFC012481213004
:1007C00021F4808191810E9471080895662329F0A7
:1007D0000E94D4140E94A71508950E942E15FACFE6
:1007E000CF93C82F882399F08CEF8C0F813A88F42F
:1007F0008C2F0E94D618882329F08C2F0E947C19F8
:100800000E94230C8C2F0E9462190E94230CCF910E
:10081000089580E28C0F883048F4C77081E001C0F1
:10082000880FCA95EAF70E946F0BEFCFEBE5EC0F4C
:10083000E33040F4F0E0E05BFE4F808190E00E9406
:100840006A18E5CFE8E5EC0FEB3150F4F0E0EE0F7D
:10085000FF1FE65EFE4F808191810E948F18D7CFE7
:1008600083E38C0F833198F661E08C2F0E94E603BE
:10087000CECF882381F19CEF980F913A28F40E9403
:100880007C190E94230C089590E2980F983050F440
:10089000877091E001C0990F8A95EAF7892F0E942D
:1008A000750BEFCF9BE5980F933028F490E080E034
:1008B0000E946A18089598E5980F9B3128F490E0FB
:1008C00080E00E948F18089593E3980F933118F4F5
:1008D00060E00E94E60308951F93CF93DF93182FE3
:1008E000EB010E94F003209739F4812F0E94390414
:1008F000DF91CF911F9108958FE99FE00197F1F764
:1009000000C000002197EFCF70E060E0893311F460
:1009100060E570E00E946C040895882321F00E9435
:100920006F0B0E94230C0895882321F00E94750B01
:100930000E94230C0895B0E0A0E0E1EAF4E00C94FA
:10094000E0216C01D62FC72FFC011581068102958D
:100950000F700E94650BE82E8823F9F0E12E112319
:10096000E1F08C2F807F803461F080E28D0F883041
:1009700008F18C2F807E803221F4D230D8F0002311
:10098000C9F080916E0282FF15C082E00E94530C74
:100990000E94650B91E0E82EE926BC2EB2949FE000
:1009A000B922FBE0FB15B8F1EB2DF0E0E457FD4D6B
:1009B0000C94D121E12CF1CF0C2F0F70C07F11F0DE
:1009C0000295007F112399F0002359F080E28D0FEA
:1009D000883010F0D11107C0802F0E946F0B0E9449
:1009E000230C8D2F48C0802F0E94820BF8CF8D2FB3
:1009F0000E943904002379F080E28D0F883010F0D6
:100A0000D11104C0802F0E94750B03C0802F0E945B
:100A1000880B0E94230CEB2DE850FF0B349708F055
:100A20006BC10E9433180E948803CDB7DEB7E9E09E
:100A30000C94FC212C2F2F70F22EC07FC03219F0A5
:100A4000F29480EFF822DD2341F0D130C9F1112377
:100A500009F443C00023E9F0C4CF80916E0282FD07
:100A600014C0112359F0FF2029F08F2D0E946F0B25
:100A70000E94230C80E00E94F003CDCF80E00E9412
:100A80003904FF2041F28F2DBECF112369F00111EF
:100A900004C08F2D0E948D04BECF013009F0BBCF62
:100AA0008F2D0E94A60BB7CF0111B5CF8F2D0E94BD
:100AB00094048F2D0E94B20B8F2D0E94960BABCF0A
:100AC000112321F0063008F0A6CFE3CF053008F05F
:100AD000A2CF8F2D0E9494049ECF0023D1F3D9334F
:100AE00049F43FEF87EE93E0315080409040E1F7CA
:100AF00000C000008D2F0E9439048DCF8C2F869569
:100B00008695837069F0813009F085CF8D2F9C2FF9
:100B10009370111102C080E090E00E948F187BCF8B
:100B20008D2F9C2F9370111102C080E090E00E94E5
:100B30006A1871CF612F8D2F0E94E6036CCF8C2F26
:100B40008370A1F5111167CF4D2F429546954770DF
:100B5000440F440F2D2F2F7030E0042E02C0220FBF
:100B6000331F0A94E2F790E080E0D4FF09C08FE0E1
:100B700090E002C0880F991F4A95E2F78095909502
:100B8000C695C695C370822B932BC23049F058F49A
:100B9000C13019F00E9449073ECF0E9440073BCF69
:100BA0000E94520738CF0E943D0735CF869511230A
:100BB00011F08C2F8170882309F42DCF4D2F429591
:100BC00046954770440F440F2D2F2F7030E0042EB0
:100BD00002C0220F331F0A94E2F790E080E0D4FFB6
:100BE00009C08FE090E002C0880F991F4A95E2F794
:100BF00080959095C695C695C370822B932BC23075
:100C000049F058F4C13019F00E94B40704CF0E9493
:100C1000AB0701CF0E94BD07FECE0E946107FBCE4D
:100C2000CF70112329F08C2F0E9479078D2F32CF9E
:100C30008D2F0E9494048C2F0E948907ECCED23F06
:100C400041F160F4D03FB9F0D13F81F0112309F4B4
:100C500043C00111C6CE8C2F8F711FC0D33F01F14D
:100C6000D43FA1F780916E0282FD24C08C2F8F713A
:100C7000112311F312C0112341F0053008F0CBCE3F
:100C80008C2F8F710E949B07C6CE063008F0C3CE12
:100C9000F7CF8C2F8F711111CFCF0E947907BBCE68
:100CA000112329F08C2F8F710E946D07B4CE0E9402
:100CB0006807B1CE112331F063E08C2F8F710E9451
:100CC000350CA9CE81E00E94530C023008F4A3CE6B
:100CD00082E00E94530C9FCE002359F0D93309F0D3
:100CE00009CFEFEFF7EE23E0E150F0402040E1F7CD
:100CF000FFCE8C2F8F71A0CFEE2009F496CE0E94EC
:100D0000610B80FD92CEF60115820E945B0B0E9462
:100D10007907C6010E94A9060E945B0B0E94890701
:100D200084CE0F931F93CF93DF93EC016881798179
:100D30008D810E947C088C010E94C6070E943C079E
:100D4000B801CE010E949B04DF91CF911F910F91BA
:100D50000895CF93DF93EC018C81882399F0CE0125
:100D60000E94FF02811111C00E94650B882351F07F
:100D70008D81882339F080916E0282FF03C082E06A
:100D80000E94530CDF91CF910895CE010E949106ED
:100D9000CE010E94A402F6CF882321F00E94820B8C
:100DA0000E94230C0895882321F00E94880B0E9442
:100DB000230C089590E080E00E946A1890E080E0A3
:100DC0000E948F180E948F0B0E94230C0E94C31553
:100DD0000E94A71508950E9496190E94DA060895A8
:100DE0000E947F0B0E94EB06089592959F709630AB
:100DF00091F058F4925F9F70923058F4803F19F050
:100E000030F4883E30F481E008959A5FF4CF843F57
:100E1000D1F380E00895883EB0F3813FD1F7F3CF5E
:100E2000FC012481222339F0808191810E94710884
:100E30000E94F506089580E00895A6E0B0E0E3E2A0
:100E4000F7E00C94E7212696E2E00C940322A7E059
:100E5000B0E0EDE2F7E00C94E7212796E2E00C9495
:100E6000032208950E94310708950E94320790934B
:100E7000A5018093A401089508950E94350708955F
:100E80002091A4013091A501822B932B0E9435075C
:100E900008952091A4013091A501822393230E94FB
:100EA000350708952091A4013091A5018227932749
:100EB0000E94350708950E94310708950E945B073C
:100EC00008950E945E079093A3018093A201089564
:100ED00090E080E00E946107089521E030E0A901E0
:100EE00002C0440F551F8A95E2F7CA010E946107AC
:100EF000089521E030E002C0220F331F8A95E2F707
:100F00008091A2019091A301822B932B0E946107F3
:100F1000089521E030E002C0220F331F8A95E2F7E6
:100F2000209530958091A2019091A3018223932373
:100F30000E946107089521E030E002C0220F331FB4
:100F40008A95E2F78091A2019091A30182279327CD
:100F50000E94610708952091A2013091A301822B84
:100F6000932B0E94610708952091A2013091A30163
:100F7000822393230E94610708952091A20130915A
:100F8000A301822793270E94610708950895262FC1
:100F9000277091E001C0990F2A95EAF723E0769532
:100FA00067952A95E1F7660F771F660F771FFA019D
:100FB000E60FF71F50E040E0682F70E08191DF01FD
:100FC00011979B01042E02C0369527950A94E2F7EB
:100FD000217021952827292328272C934F5F5F4FC5
:100FE0004430510559F70895A82FA77023E096952E
:100FF00087952A95E1F7880F991F880F991FFB01A4
:10100000E80FF91F50E040E080E0219130E00A2E27
:1010100002C0369527950A94E2F721703327042EF3
:1010200001C0220F0A94EAF7822B4F5F5F4F4430D2
:10103000510559F70895262F933070F4833060F4EA
:10104000682F70E083E0989F600D711D11244AE9BC
:1010500051E0822F0E94C7070895292F933068F42A
:10106000833058F490E06AE971E033E0239F800D0B
:10107000911D11240E94F407089580E00895B0E0C6
:10108000A0E0E5E4F8E00C94E0217C010091A201ED
:101090001091A3018091A4019091A501082B192B17
:1010A000CFE0D0E0CC24C394D12CBC2EC6010C2EB2
:1010B00002C0880F991F0A94E2F780239123892B9D
:1010C00049F4219790F7B12C8B2DCDB7DEB7E9E02D
:1010D0000C94FC21B7018C2F0E94670F019789F3B4
:1010E000F3CFCF93DF93EC010E943F08BE010E9433
:1010F000670FDF91CF9108951F93CF93DF93EB019B
:1011000090919901992339F0CB010E947108DF91E8
:10111000CF911F910895882369F0CB010E943F0869
:10112000182F682FCE010E941B08BE01812F0E943C
:10113000670FEDCFCB010E942D08182FF6CF1F931C
:10114000CF93DF93C091A60117E08091A7018C1384
:1011500004C0DF91CF911F910895D0E01C9FF00152
:101160001D9FF00D1124E855FE4F208131814281F1
:1011700053816481758186810E9427072196C770FB
:10118000E4CF2091E0013091E1014091E2015091E2
:10119000E3016091E4017091E5018091E6010E9414
:1011A00027070895CF93DF938091E601807F09F0B0
:1011B0004DC08091E501882309F448C0E091A60163
:1011C0005091A701C091E101D091E0016091E2014D
:1011D0007091E30147E05E17C9F18E2F90E0E49F24
:1011E000F0011124E855FE4F2481222391F1489FFC
:1011F000F001499FF00D1124DF01A855BE4F119653
:101200002C9111972C1325C02C912D1322C01596CB
:101210002C91159721111DC012962D913C91261BE2
:10122000370B283C3105A8F48091E6018F7080616E
:101230008093E601E255FE4F80818F70806180834C
:1012400080EE91E00E94A9060E949F08DF91CF9155
:101250000895FC013196E770BECF482F2091A6017A
:101260009091A70157E0291302C080E0089530E073
:10127000529FF001539FF00D1124E855FE4F8181DC
:10128000681306C08081481303C085818111EECFA9
:101290002F5F3F4F2770E7CFA4E1B0E0E2E5F9E030
:1012A0000C94DD218C0186E0F801DE011F9601908F
:1012B0000D928A95E1F7F8018481E58090EEA92EE0
:1012C00091E0B92E9091E40191111FC08823D1F0D3
:1012D000EE20A9F0C8010E941007F82E882379F0AB
:1012E00087E0F801D50101900D928A95E1F7C501DB
:1012F0000E94DD030E94D2080E94C1085FC0C8019D
:101300000E94A906FF24F39459C0C080D180828036
:101310009380F090E5012091E2013091E301A40176
:10132000421B530BFF2009F4F9C0483C510508F05B
:10133000A7C0882309F442C09091E1018091E601A1
:10134000282F207F09F05CC09D1116C09091E0010C
:10135000C91212C0E1104EC08F7080618093E60107
:101360000E94C10880EE91E00E94A9068091E601EA
:10137000F8018683F12C22C0E1103CC06D2D8C2D2C
:101380000E942D096D2D8C2D0E942D09E82E8111B2
:10139000F1CFCF86D88A8F8598890E947108292F2E
:1013A00022952F70243078F49F702230A8F0992372
:1013B000B9F0F8019681907F99F4FE2C8F2D6496F8
:1013C000ECE00C94F9212A5F2F70223068F0C801FC
:1013D0000E94A906EF2CF1CF992311F0882369F31D
:1013E000805E883050F3F3CF803F38F3815F8330E5
:1013F00070F7E3CF8091E60181608093E601BACF78
:101400009D1113C09091E001C9120FC0E1100DC0F1
:101410008683C8010E94A90687E0F801A0EEB1E02A
:1014200001900D928A95E1F767CFC8010E941007DD
:10143000882309F464CFEE2009F461CF8091E6019E
:10144000803288F02091E0013091E10139872887CE
:101450009B868A869091E4019C871D868E87CE01AB
:1014600008960E94A90687E0F801A0EEB1E001907D
:101470000D928A95E1F70E94D2080E94C10842CFDE
:101480009091E601292F207FA1F4682D9A8A898AFC
:10149000A6017A899E2D0E941D0780EE91E00E9490
:1014A000A90687E0F50111928A95E9F70E94C10823
:1014B00061CF882309F482CF8091E1018D1110C0A2
:1014C0008091E001C8120CC0E1100AC09683C801E7
:1014D0000E94A90687E0F50111928A95E9F76ECF7F
:1014E000C8010E941007882309F409CFEE2009F4EF
:1014F00006CF8091E601803208F4B5CF2091E0015B
:101500003091E1013A8329839C828B829091E4019E
:101510009D831E828F83CE010196A3CF483C510547
:10152000B8F5882309F4EECEFE2CEE2009F4E7CEC0
:101530008091E1018D111EC08091E001C8121AC096
:101540008091E60180FD0DC0982F907F51F0868339
:10155000903F09F45ECF982F907F905F8F70892B1A
:1015600057CF87E0F801A0EEB1E001900D928A9587
:10157000E1F724CFC8010E941007811174CF809138
:10158000E60181608093E601C8010E94A90616CF9A
:10159000682D9A8A898AA6017A899E2D0E941D0744
:1015A00087E0F50111928A95E9F7A6CEAEE0B0E0AA
:1015B000ECEDFAE00C94E621288739874A875B87AF
:1015C0006C877D878E87CE0108960E944C09882300
:1015D000B1F06C85662341F0288539854A855B85A5
:1015E0007D858E850E94270717E08091A601909146
:1015F000A70189133DC02E96E3E00C94022287E0F8
:10160000FE013896DE01119601900D928A95E1F760
:101610008C85882349F32091A70130E0C901019608
:10162000877099274091A6014817190699F097E00D
:10163000929FD001939FB00D1124A855BE4FFE017B
:10164000319601900D929A95E1F78093A7010E943F
:101650009F08CACF0E94F0061092A7011092A6011F
:1016600087E0E0EEF1E0DF011D928A95E9F7BCCF5B
:10167000819FC001112488559E4F0E944C098823E8
:1016800009F4B9CFE091A6011E9FF0011124E8559D
:10169000FE4F208131814281538164817581868131
:1016A0000E9427078091A60190E0019687709927F4
:1016B0008093A6019ACF80910F0286958695869594
:1016C000089580910F028770089590910F0297708E
:1016D00081E009F480E0089580913B0208959091A3
:1016E0003B02892B80933B020895809590913B02A9
:1016F000982390933B02089580933B0208951092A3
:101700003B02089590913A02892B80933A02089502
:10171000809590913A02982390933A0208951092FE
:101720003A02089508950E94920B08959091100234
:10173000292F282331F080958923809310020E945D
:10174000930B089508950E94A20B089590911102A1
:10175000292F2823281729F0982B909311020E94F3
:10176000A30B089590911102292F282331F0809521
:101770008923809311020E94A30B08958091110286
:10178000882329F01092110280E00E94A30B089593
:10179000CF93C0913B0280913A02C82B80911102F5
:1017A000882331F0C82B0E94B41881110E94BE0B0F
:1017B0008C2FCF910895CF93DF93C0910201D091E8
:1017C00003010E94C80B8883C0910201D0910301DC
:1017D00048E050E067E072E0CE010E942222892BAF
:1017E00059F088E0FE01A7E0B2E001900D928A95E1
:1017F000E1F7CE010E944318DF91CF910895CF9376
:10180000DF93C0910001D09101010E94C80B898330
:10181000C0910001D091010140E250E067EE71E01B
:10182000CE010E942222892B59F080E2FE01A7EE10
:10183000B1E001900D928A95E1F7CE010E944E1819
:10184000DF91CF9108950E94261A813039F480915A
:101850006D0287FF03C00E94FF0B08950E94DB0BFF
:10186000089508950E94310C089590916E0292FFA0
:1018700011C098E0899F90011124622B60930F02A0
:101880000E94790780910F028695869586950E9421
:10189000320C08950E947907089510920F0280E09B
:1018A0000E94320C089590910F02809589238093B5
:1018B0000F02282F277069F4891759F090916E0252
:1018C00092FF07C08695869586950E9489070E949B
:1018D0004D0C089590916E0292FB222720F9281753
:1018E00069F080FB92F990936E0280916D02909165
:1018F0006E020E94B90C82E00E94530C0895809100
:101900006E0282FB882780F991E089270E946A0C89
:10191000089581E00E946A0C089580E00E946A0C9C
:1019200008956FEF7FEF90E080E00E9474220895A9
:1019300090E080E00E94402221E0853E9E4F09F029
:1019400020E0822F089582E090E00E9438220895DE
:1019500083E090E00E94382290E00895682F83E0B1
:1019600090E00E945622089584E090E00E94402278
:101970000895BC0184E090E00E9474220895AB01B8
:10198000BC018FE090E00E9468220895AB01BC0189
:1019900083E190E00E946822089560E070E0CB014E
:1019A0000E94C60C089560E070E0CB010E94BF0C5D
:1019B0000E94CD0C0895A8E0B0E0E1EEFCE00C94AC
:1019C000E72165EE7EEF90E080E00E94742260E007
:1019D00082E090E00E94562281E090E09093A50181
:1019E0008093A4010E94AE0C60E074E184E090E07A
:1019F0000E94742260E086E090E00E94562260E03F
:101A000087E090E00E94562240E050E0BA0188E072
:101A100090E00E94682260E083E290E00E945622FB
:101A200060E08CE090E00E94562260E08DE090E063
:101A30000E94562219821A821B821C821D821E82DB
:101A40001F82188648E050E067E170E0CE01019601
:101A50000E94462240E050E0BA018FE190E00E94EF
:101A600068220E94D30C2896E2E00C9403220E9484
:101A7000DB0C0895682F8EE090E00E9456220895B6
:101A8000A6E0B0E0E6E4FDE00C94E5210E94D81A5F
:101A90008C0180913C0290913D028017910781F06A
:101AA00019821A820E94D81A682F49815A81792F87
:101AB00080E090E00E94AD0310933D0200933C0251
:101AC0002696E4E00C9401220E94E41A60934502F9
:101AD00070934602809347029093480260934102BC
:101AE00070934202809343029093440208950895B4
:101AF00008950E94770D089508950E947C0D0E941C
:101B0000790D089508950E94820D089508950E9408
:101B1000860D0E94830D08958DE590E10E94B81115
:101B20000E94780D0E947D0D089581E008950E9425
:101B3000950D08950E94950D0895089508950895AE
:101B40000E949D0D0E949E0D0E949F0D08950E946F
:101B5000980C811102C00E94370D0E94A30C809343
:101B600049020E94B40C90936E0280936D020E9411
:101B7000A80C0E943D078091A2019091A3010E94B0
:101B80005E0708950E94CF1A0E9411110E94A70DAE
:101B90000E9487030E941B120E94870D0895A6E0F1
:101BA000B0E0E5EDFDE00C94DE210E94970D81117F
:101BB0000AC00E94400D0E94E5150E9494032696DB
:101BC000EBE00C94FA210E94271110913E0280E074
:101BD0000E94791018130EC010913F0281E00E94FC
:101BE0007910811307C01091400282E00E947910A1
:101BF0001817F9F28091490281FD0E947F100E941E
:101C00009A0DC82E8EE3A82E82E0B82E10E09924FB
:101C10009394812F0E947910082FF50181915F0123
:101C2000081729F1F12CEE24E394D02ED8268D2D1F
:101C30008E21A9F0CC2099F0F9821A830E94D81A3B
:101C40009C838B839D8291E0802F8E2109F490E00C
:101C500049815A816B817C818D810E94AD03F3940F
:101C6000EE0CF3E0FF12E3CFF501319700831F5F25
:101C7000133079F60E94640D9ECF1F93CF93DF93AC
:101C80000E946C0FEC01C11580E5D807F0F5C11575
:101C900080E4D80708F09CC0C03ED10520F5CD3CBB
:101CA000D10508F082C0C83AD10578F4C53AD1050B
:101CB00008F073C0C130D10519F1209709F1C43083
:101CC000D105F0F4D0E0C0E01BC0C33CD105D0F793
:101CD000C85AD0E0CC0FDD1FCD5ADE4F0990D88115
:101CE000C02DD4640DC0C11580E2D80708F0D1C062
:101CF000C11581E0D80708F05AC0C83ED10510F7D9
:101D0000CE01DF91CF911F910895C03682E5D807AB
:101D100018F5C03482E5D80708F06BC0C03282E500
:101D2000D80708F05FC0C11582E5D80708F497C04E
:101D30002C2F2695269580E2289F900111248C2F28
:101D40008370C1E0D0E002C0CC0FDD1F8A95E2F7BE
:101D5000C22BD32BDD68D4CFC03A82E5D80760F41C
:101D6000C03882E5D80708F459C0CF71D0E0DC2F25
:101D7000CC27C46FD06AC4CFC03C82E5D80708F432
:101D800062C0C03E82E5D80708F09CCFDC2FCC278C
:101D9000CC27DF71C06FD06AB3CFC55AD0E0C75728
:101DA000DE4FC881D0E0D064ABCFD065A9CF8D2FF6
:101DB0000E940E10182FCE0199270E946C0FC12F80
:101DC000D0E0DC2FCC27CC27DF71C82BD92B98CFC4
:101DD000CE0199270E946C0FCC27DF70C82BD92B1E
:101DE000D06A8ECFCF71D0E0DC2FCC27C16FD06A04
:101DF00087CF2C2F26952695277080E2289F90016B
:101E000011248C2F8370C1E0D0E002C0CC0FDD1F05
:101E10008A95E2F7C22BD32BDC6872CF2C2F269544
:101E20002695277080E2289F900111248C2F8370C3
:101E3000C1E0D0E002C0CC0FDD1F8A95E2F7C22BD3
:101E4000D32BDA685DCF8C2F8F710E940E10C82FB4
:101E5000D0E0DC2FCC27CC27DF71D06251CF8C2F84
:101E60008F710E940E1055E0D695C7955A95E1F7EF
:101E7000CF70D0E0DC2FCC27282F30E084FF05C0C6
:101E800044E0220F331F4A95E1F7C22BD32BD069D0
:101E900037CF8D2F8F710E940E10182FCE019927EA
:101EA0000E946C0FC12FD0E0DC2FCC27CC27DF7134
:101EB000C82BD92BD2CF462F733030F4633020F4A7
:101EC000672F0E94AB01089590E080E008950E9482
:101ED0005B0F0E943D0E089582389105B9F1B0F470
:101EE0008133910509F47DC048F48932910509F4E4
:101EF0006DC08A32910509F47BC008958533910540
:101F000009F45FC08933910509F10895833E910575
:101F1000D9F138F4803E910529F1823E910579F19D
:101F20000895863E9105D9F1873E910509F43EC09A
:101F3000843E910541F520916E0221FF24C08091DD
:101F40006D0284FD19C087EE90E0089520916D0226
:101F5000237009F05AC020916E0223FF14C089E259
:101F600090E0089520916D0220FD38C030916E02FE
:101F700030FF09C024FF43C090E080E00895209125
:101F80006D0222FDF7CF089520916D0222FD3AC027
:101F900030916E0230FD39C024FFF5CFEDCF209196
:101FA0006D0223FFF0CF24FDE7CFCDCF20916D024E
:101FB00023FD2EC030916E0231FFEECF84EE90E013
:101FC000089520916D0225FFDECFC9CF20916D02CB
:101FD00025FD21C020916E0223FFD5CF89E390E03B
:101FE000D2CF20916D0226FFCECF8AE290E00895F5
:101FF00020916D0226FFC7CF81E390E0089583EE24
:1020000090E0089582EE90E0089580EE90E00895CB
:1020100086EE90E0089585E390E0089590916D023A
:1020200092FF10C041E0282F2471243009F040E0D5
:1020300031E0282F2871283009F030E0431711F0E3
:102040002CE0822793FF10C041E0282F2471243117
:1020500009F040E031E0282F2871283109F030E004
:10206000431711F02CE0822730916E0230FF10C030
:1020700051E0282F2171213009F050E041E0282F54
:102080002871283009F040E0541711F029E0822728
:1020900031FF10C041E0282F2171213109F040E0CB
:1020A00031E0282F2871283109F030E0431711F072
:1020B00029E0822794FD877E089580E00895CF93DC
:1020C0009C01205E3245C1E02032310538F4FB012D
:1020D000C581C11103C08F710E94C5028C2FCF91A1
:1020E000089508950E947110089508950E94751032
:1020F0000895E82FF0E0EE58FD4F8081089508958F
:1021000080EA8A95F1F7089500C008950E94801032
:102110000895F894E82FE295EF70F0E031A1282FB0
:102120002F7081E090E001C0880F2A95EAF7982F80
:102130009095932391A392A1892B82A378940895DB
:1021400081E90E94891080E90E94891084E90E9437
:10215000891084EF0E94891085EF0E94891086EF14
:102160000E9489100895B0E0A0E0E9EBF0E10C9442
:10217000E121EC01D62E062F10E0C80181579E4FB9
:102180007C01FC0180818F3F09F444C0F894E82F62
:10219000E295EF70F0E091A18F7021E030E001C096
:1021A000220F8A95EAF7892F822B81A382A120959D
:1021B000282322A378940E948410ECE8F1E031E017
:1021C000C12C21912F3F59F1A22FA295AF70B0E001
:1021D00090968C9190E02F7002C0959587952A95E6
:1021E000E2F780FD1CC0832FC82A330F81E0EF384F
:1021F000F80739F7F70180818F3F11F00E948910AD
:1022000061E0C11001C060E08D2D0E948610C00FFA
:10221000D11FC882CDB7DEB7E8E00C94FD2180E085
:10222000E3CF0E94A01083E0E2E7F2E0DF01982F05
:102230001D929A95E9F7EFE6F2E0DF011D928A958B
:10224000E9F783E00E9466110E9472100895A3E0EE
:10225000B0E0EDE2F1E10C94E62119821A821B82D2
:1022600060E0CE0101960E94B31061E0CE010196BC
:102270000E94B31062E0CE0101960E94B31043E0C9
:1022800050E0BE016F5F7F4F8FE692E00E942222F6
:1022900021E0009709F420E0892B49F089819A8197
:1022A000AB8180936F0290937002A093710243E020
:1022B00062E772E08FE692E00E946711182F0E9499
:1022C0007610812F2396E3E00C9402220895B0E06B
:1022D000A0E0EDE6F1E10C94E1216C017B01042F1B
:1022E000C22F222379F081E080934C020E94D81AF9
:1022F00090934B0280934A0280E0CDB7DEB7E8E0CE
:102300000C94FD21D0914C02DD23B1F380914A025F
:1023100090914B020E94671A059770F310E0A80194
:10232000B601C7010E942222892B31F0A801B60113
:10233000C7010E942F22CD2F10924C028C2FDDCF8F
:102340000E94CF0D08950E94711A0E94791C0E946C
:102350008C0D0E94931C0E94C20D0E94A01C0E9422
:10236000A51C0E94A0110E94BF1C0E94A00DF7CFC7
:1023700090939301809392010895FB01258122237C
:1023800041F097FF06C09F77BC0190E080E00E947B
:10239000011381E008950F931F93CF93DF93EC0116
:1023A0008B01FB018581882389F00E946C0B82726E
:1023B000FE01E053FC47E830F10540F4E856FD4DDE
:1023C0000C94D121882369F00E943312B801CE0108
:1023D0000E94BD11DF91CF911F910F910895882325
:1023E00099F30E943212F2CF80E00E942412EECFC5
:1023F00081E0FBCF82E0F9CF83E0F7CF84E0F5CF37
:1024000085E0F3CF90917602923071F48A3050F4E7
:1024100090E009966AE070E00E94BD21875A0E9410
:10242000840408958650FBCF0E947B170895089579
:102430000E94171208958CE090E00E943822809349
:1024400076020E9418120895CF93C82F80937602C7
:10245000682F8CE090E00E9456228C2F0E94181268
:10246000CF910895089508950E94401880937502B1
:1024700090917602913029F481FF03C089E30E9494
:1024800084040E946C0B809377020E947F0B0E9451
:102490008F0B80917602823021F158F48823C1F0AD
:1024A0008130D1F08FE39CE90197F1F700C0000083
:1024B0000895843051F18530A9F78BE191E00E94B5
:1024C0002F0285E290E00E942F0288E290E006C091
:1024D00082EE0E94F003E6CF88E193E00E942F0293
:1024E000E1CF8091750280FD03C083E50E948404E2
:1024F00082EE0E94F0038FE39CE90197F1F700C0A0
:10250000000087E50E948404CDCF86EE0E948404FB
:1025100088E1F8CF80917602823011F148F4882367
:1025200081F0813091F0809177020E947C0B0895B8
:102530008430F9F08530B9F788E290E00E942F02EC
:10254000F2CF82EE0E943904EECF8CE20E94840426
:102550008091750281FFE7CF89E30E948404E3CF75
:1025600082EE0E9439048091750280FDDCCF83E504
:10257000F4CF88E2F2CF8F929F92AF92BF92EF9208
:10258000FF920F931F93CF93DF934B015C01D09188
:1025900076028CE1E82EF12C07E010E021E0D50175
:1025A000C4010E2C04C0B695A795979587950A94FB
:1025B000D2F7C82FCF70222339F0D43051F4CA306B
:1025C00040F080E00E9402128C2F0E94021220E054
:1025D00005C0C111F9CF04301105B4F30150110940
:1025E00084E0E81AF1080F3F1007C9F6DF91CF9198
:1025F0001F910F91FF90EF90BF90AF909F908F90A1
:102600000895CF92DF92EF92FF926B017C01C1148B
:10261000D10481E1E806F104A0F5C114D10481E000
:10262000E806F10420F080917602823051F10E9498
:102630003412C114D10481E0E806F10438F180912C
:102640007602811123C081E0E81AF108C701B601C2
:102650002AE096958795779567952A95D1F77852D0
:102660008F4F9F4F0E94BB1283E0D822EE24FF249D
:10267000C701B60174528F4F9F4F0E94BB120E9438
:102680008A12FF90EF90DF90CF900895C701B601B6
:10269000F4CFCF93DF93EB0186319C4711F50E9475
:1026A0006C0B9D81992399F08A7A91E009F490E06E
:1026B00090934D02811109C089E20E9462190E9423
:1026C000230C80E0DF91CF91089585E3F6CF8091D0
:1026D0004D02811104C089E20E947C19F0CF85E38C
:1026E000FBCF81E0EFCFCF93DF93EC01FB0185813E
:1026F000882309F4D2C09E0130572332310508F0F7
:10270000B2C00E94B40C90936E0280936D02FE01E1
:10271000E150F047E232F10520F4E056FD4D0C9413
:10272000D12180916D02816080936D0293C0809170
:102730006E02886080936E028DC080916D0282600F
:10274000F3CF80916D028460EFCF80916D0288603D
:10275000EBCF80916E028160EDCF80916E0282603E
:10276000E9CF80916D028061DFCF80916D02806240
:10277000DBCF80916D028064D7CF0E94F0068091FC
:102780006D028068D1CF80916D028C60CDCF809139
:102790006E028360CFCF80916D028E7FC5CF809116
:1027A0006E02877FC7CF80916D028D7FBDCF8091F4
:1027B0006D028B7FB9CF80916D02877FB5CF8091FD
:1027C0006E028E7FB7CF80916E028D7FB3CF8091E6
:1027D0006D028F7EA9CF80916D028F7DA5CF8091F4
:1027E0006D028F7BA1CF0E94F00680916D028F77E2
:1027F0009BCF80916D02837F97CF80916E028C7FFB
:1028000099CF80916D0282FB992790F921E0922760
:1028100090FB82F990FB83F987CF80916E02982F0D
:10282000909591708E7F892B90FB81F983CF909149
:102830006D02892F8F7B96FF806476CF0E94F00611
:1028400090916D02892F97FB87F980586DCF81E0B9
:102850000E943A0D80916D0290916E020E94B90C17
:102860000E94F00680E0DF91CF91089580E0F0CFE4
:1028700090916D02892F8F7E94FF806155CF90914A
:102880006D02892F8E7F90FF81604ECF90916E02F6
:10289000892F877F93FF88604DCF81E0E4CF282F79
:1028A00035EB2303C001112497FF04C08058910920
:1028B000892F089580589F4FFBCF8091540280FF4D
:1028C0000DC06091090170E0660F771F60387105D7
:1028D00070F56115710569F1862F089581FF07C0B4
:1028E0006091090184E0689FB0011124EFCF6091ED
:1028F000090182FD0AC0809153028823A9F020912A
:10290000080160910901821710F088E0ECCF869FE2
:10291000C001112433E0880F991F3A95E1F7622F27
:1029200070E00E94BD21D2CF68E070E0D5CF8FE784
:10293000089581E008958091540280FF0CC0609159
:10294000050170E075956795759567956115710539
:1029500049F1862F089581FF06C06091050170E05E
:1029600075956795F3CF6091050182FD0BC090913D
:1029700052029923A1F060910401809105019617FC
:1029800038F0682F70E06038710500F38FE7089524
:10299000899FC001112470E00E94BD21F4CF61E045
:1029A00070E0D7CF81E008958D3C31F40E945D1432
:1029B00081958093580208958E3C19F40E945D140D
:1029C000F8CF8F3C31F40E945D14819580935702BB
:1029D0000895803D19F40E945D14F8CF893D29F4D3
:1029E0000E949B148093590208958A3D21F40E940D
:1029F0009B148195F7CF8B3D31F40E949B148195F8
:102A000080935A0208958C3D19F40E949B14F8CFCC
:102A10009FE2980F983070F4815D990B21E030E0CF
:102A200001C0220F8A95EAF780915602822B80938B
:102A3000560208958D3D31F4809154028160809357
:102A4000540208958E3D21F4809154028260F7CFA4
:102A50008F3DB9F7809154028460F1CF40915702C5
:102A60008D3C59F48091580287FF0DC01092580296
:102A700041110BC01092530208C08E3C81F480912A
:102A8000580218169CF3442381F0809159029091CA
:102A90005A02892B09F05AC01092520208958F3CB5
:102AA00049F447FFF0CF10925702809158028111EC
:102AB000ECCFE0CF803D19F41416ACF3E4CF909145
:102AC0005902893D29F41916F4F610925902DBCF08
:102AD0008A3D19F497FFD7CFF8CF90915A028B3DDA
:102AE00029F497FFD0CF10925A02CDCF8C3D19F424
:102AF0001916CCF3C8CF9FE2980F983090F4815DFF
:102B0000990B21E030E0B90102C0660F771F8A956A
:102B1000E2F7CB018095909156028923809356026B
:102B2000B2CF8D3D31F4809154028E7F8093540258
:102B3000AACF8E3D21F4809154028D7FF7CF8F3D37
:102B400009F0A1CF809154028B7FF0CF08950E94AD
:102B5000D81A9C019091570280915802982B21F02D
:102B600030935102209350029091590280915A0261
:102B7000982B21F030934F0220934E0285E592E08E
:102B80000E945C18089586E0E5E5F2E0DF011D9201
:102B90008A95E9F710925302109252021092540251
:102BA0000895FC01828181110EC0838181110BC0C7
:102BB0008481811108C091E08581811101C090E07C
:102BC000892F8170089581E0FCCFA6E0B0E0EBEEA4
:102BD000F5E10C94E62186E0E5E5F2E0DE011196F0
:102BE00001900D928A95E1F71092570210925802C7
:102BF0001092590210925A028B819C81892B89F084
:102C000080915002909151020E94671AAC019091FC
:102C100053029923C9F180910A018417150608F41B
:102C200040C08D819E81892B91F080914E029091C0
:102C30004F020E94671AAC0190915202992309F445
:102C40006AC0809106018417150608F472C0BE019F
:102C50006F5F7F4F85E592E00E94B019811105C03A
:102C600085E592E00E94D11581110E94A71586E0AA
:102C7000FE013196A5E5B2E001900D928A95E1F74B
:102C80002696E3E00C94022220910B018AE0289F13
:102C9000900111242417350720F69F5F909353026B
:102CA00002C09F3FD1F71B81112359F00E945D1490
:102CB0009FEF11160CF491E0899F802D11248093D1
:102CC00057021C81112359F00E945D149FEF1116C9
:102CD0000CF491E0899F802D1124809358028091FB
:102CE0005702882309F49DCF10915802112309F44B
:102CF00098CF0E944F14882351F080935702812F60
:102D00000E944F14882329F0809358028ACF81E0D3
:102D1000F4CF81E0F9CF209107018AE0289F90014C
:102D200011242417350708F092CF9F5F9093520229
:102D300002C09F3FD1F71D81112359F00E949B14BF
:102D40009FEF11160CF491E0899F802D1124809340
:102D500059021E81112359F00E949B149FEF1116F6
:102D60000CF491E0899F802D112480935A02809168
:102D70005902882309F46BCF10915A02112309F4E8
:102D800066CF0E944F14882351F080935902812FFF
:102D90000E944F14882329F080935A0258CF81E073
:102DA000F4CF81E0F9CFB0E0A0E0E9EDF6E10C94DA
:102DB000E021E82FF0E0E254FF4FB490282F269551
:102DC0002695269530E0F901E25AFE4F049187706E
:102DD00010E0082E02C0159507950A94E2F70170DD
:102DE0001127F901E25BFE4FE490F12C082E02C09E
:102DF000F594E7940A94E2F791E0E922FF24F901BF
:102E0000E25CFE4FC491D0E002C0D595C7958A958B
:102E1000E2F7C170DD27C62ED12C0115110549F549
:102E2000E114F10431F086EE0E94F003C601009730
:102E300071F5B6018B2D0E946C04C601009779F5DF
:102E4000E114F104A1F50115110531F081EE0E94A4
:102E50003904C6010097C9F5CD2B31F08CE20E94F0
:102E60008404C114D104C9F5CDB7DEB7E9E00C94F0
:102E7000FC2181EE0E94F003C601009789F2EFE980
:102E8000FFE03197F1F700C000000197F6CFEFE9BE
:102E9000FFE03197F1F700C000000197C8CFEFE9DC
:102EA000FFE03197F1F700C000000197C7CF86EE31
:102EB0000E943904C601009731F2EFE9FFE0319733
:102EC000F1F700C000000197F6CFEFE9FFE031977E
:102ED000F1F700C000000197BDCF8FE99FE0019797
:102EE000F1F700C0000091E0C91AD108BACF60E044
:102EF0000E94D3160895982F9F709A50963020F014
:102F0000805D0E9477170895895AFBCF0F931F9316
:102F1000CF93DF93C42FD22FFC0185818823C9F082
:102F200040935D020E94D81A90935C0280935B02EA
:102F300080E28C0F883040F4C77081E001C0880FB8
:102F4000CA95EAF70E948D04DF91CF911F910F91EE
:102F5000089510915D02141332C080915B0290912C
:102F60005C020E94671A883C910548F5C0E2CD0FCB
:102F70001D17B9F080E2810F883040F4177081E0AE
:102F800001C0880F1A95EAF70E949404C83048F4EB
:102F900081E09D2F977001C0880F9A95EAF70E94F3
:102FA0008D04802F0E948404C83070F6D77081E0B1
:102FB00001C0880FDA95EAF70E949404C5CF80E239
:102FC0008C0F883008F6C77081E001C0880FCA9561
:102FD000EAF7F2CF0F93DB0188519C4787309105C8
:102FE000A0F5FC01EE53FD4D0C94D12106E221EE3B
:102FF00041EE6AE17CE7CD010E94861780E00F91E7
:10300000089507E225EE45EE6BE17CE7F4CF06E29A
:1030100021EE40EE68E17CE7EECF07E225EE44EEDC
:1030200069E17CE7E8CF06E221EE42EE6CE17CE765
:10303000E2CF07E225EE46EE6DE17CE7DCCF08E269
:1030400021E045EE6EE17CE7D6CF15968C91882382
:1030500019F010925D02D3CF81E0D1CF909363023B
:10306000809362020895E0916202F09163023097CA
:1030700029F00190F081E02D0995089580E00895F0
:103080000E9433180895E0916202F0916302309734
:1030900021F00280F381E02D09950895E09162020C
:1030A000F0916302309739F026E0DC012C93048024
:1030B000F581E02D09950895E0916202F091630297
:1030C000309739F022E0DC012C930680F781E02D67
:1030D00009950895A3E0B0E0E0E7F8E10C94E7215A
:1030E000209160023091610228173907A1F0909376
:1030F000610280936002E0916202F0916302309776
:1031000051F023E029839B838A830084F185E02D9D
:10311000CE01019609952396E2E00C940322A3E0E8
:10312000B0E0E5E9F8E10C94E72120915E023091EE
:103130005F0228173907A1F090935F0280935E0227
:10314000E0916202F0916302309751F024E029830C
:103150009B838A830084F185E02DCE010196099539
:103160002396E2E00C940322CF93DF93C0910201F7
:10317000D091030122960E94261A813081F4809119
:103180006D0287FF0CC0C0910001D0910101229611
:103190009EE180E0915028F4DF91CF91089596E070
:1031A000F8CF29912223B1F38F5FF4CFCF93C82FAB
:1031B000811102C080E024C00E94261A813011F5DE
:1031C00080916D0287FF1EC0EC2FE695E695E6958F
:1031D000EE3180F78091000190910101E80FF92F05
:1031E000F11D228130E0C77081E090E002C0880FBD
:1031F000991FCA95E2F72823392381E0232BD1F2C6
:10320000CF9108958091020190910301FC013296C3
:10321000089621912C1721F0E817F907D1F7CACFAA
:1032200081E0EECF9C01FC0132969FEF80E041915E
:10323000461751F09F3F19F4411101C0982F8F5F3D
:103240008630A9F79F3F09F40895290F311D97FD96
:103250003A95F90162830895FC013296089621910E
:10326000261303C0DF0111971C92E817F907B9F77D
:103270000895E62FE695E695E695EE3168F4E80FB9
:10328000F92FF11D677021E030E001C0220F6A952F
:10329000EAF78281822B82830895E62FE695E695F0
:1032A000E695EE3170F4E80FF92FF11D677021E01B
:1032B00030E001C0220F6A95EAF720958281282329
:1032C00022830895CF93C82F0E94261A6C2F813035
:1032D00061F480916D0287FF08C080910001909198
:1032E00001010E943919CF910895809102019091B6
:1032F00003010E941219F7CFCF93C82F0E94261AFC
:103300006C2F813061F480916D0287FF08C080913D
:103310000001909101010E944D19CF910895809173
:103320000201909103010E942C19F7CF0E94261AE6
:10333000813079F480916D0287FF0BC0E09100012C
:10334000F091010132968EE1DF011D928A95E9F735
:103350000895E0910201F0910301329686E0F4CFE6
:10336000DC01FB0111969C9111978181981322C079
:1033700012968C911297882319F0928189131AC0A2
:1033800013968C911397882319F09381891312C097
:1033900015968C911597882319F0958189130AC089
:1033A00014969C91992321F081E02481291303C074
:1033B00080E001C081E08170089508950E94DD19C8
:1033C000089581110EC081E080930F0160910C017E
:1033D00070910D0180910E0190910F010E94DE19F4
:1033E000089582E0F1CF83E080930F0160910C019A
:1033F00070910D0180910E0190910F010E94DE19D4
:1034000008950E94E119089581E080930F01609171
:103410000C0170910D0180910E0190910F010E949D
:10342000DE1908950E94041A089591E0811101C0E7
:1034300090E090930E0160910C0170910D018091CC
:103440000E0190910F010E94DE19089580910E01E6
:10345000089580930D0160910C0170910D01809190
:103460000E0190910F010E94DE19089580910D01C7
:10347000089580930C0160910C0170910D01809171
:103480000E0190910F010E94DE19089580910C01A8
:103490000895089508950E944A1A08950895089578
:1034A0000E94491A0895CF930E944E1A0E94271134
:1034B0000E944F1AC0E08C2F0E947910811105C024
:1034C000CF5FC330C1F7CF91089581E0FCCFCF9398
:1034D000DF93EC010E94D81A8C1B9D0BDF91CF91DA
:1034E000089585B7806885BF85B7806885BF0895D2
:1034F0001F921FB61F9211248F939F93AF93BF9378
:1035000080916402811113C08091780290917902B8
:10351000A0917A02B0917B024196A11DB11D8093CA
:10352000780290937902A0937A02B0937B02BF91C4
:10353000AF919F918F911F901FBE1F901895809102
:103540008002843031F10E9467031092640288E1A6
:1035500090E020E40FB6F894A895809360000FBE29
:103560002093600083B7817F846083BF83B78160CD
:1035700083BF7894889583B78E7F83BF0FB6F89406
:10358000A89580916000886180936000109260002F
:103590000FBE08950E94F0060E946E03089582E017
:1035A00084BD93E095BD9AEF97BD80936E0008951A
:1035B0002FB7F8948091780290917902A0917A02C5
:1035C000B0917B022FBF08952FB7F89460917802D5
:1035D0007091790280917A0290917B022FBF0895B9
:1035E00078941F921FB61F9211248F939F93AF93CD
:1035F000BF938091780290917902A0917A02B09164
:103600007B020196A11DB11D8093780290937902EF
:10361000A0937A02B0937B02BF91AF919F918F915B
:103620001F901FBE1F90189587E797E7909301089A
:103630008093000888E19AE00FB6F894A8958093EB
:1036400060000FBE90936000FFCF88E19AE00FB654
:10365000F894A895809360000FBE90936000FFCF10
:103660009B01BA01909180029430E9F48F708093AD
:10367000E9009FEF8091E800915085FD06C085ED3F
:103680008A95F1F700009111F5CF8091E80085FF50
:103690000AC050E040E0C9010E94361D8091E80058
:1036A0008E778093E800089543E050E0BC0182E00B
:1036B0000E94301B089546E050E0BC0182E00E9469
:1036C000301B089540E250E0BC0182E00E94301BB4
:1036D0000895CF93DF93EC010E94261A48E050E052
:1036E000BE0181E00E94301B88E0FE01A5E6B2E049
:1036F00001900D928A95E1F7DF91CF910895809125
:103700007F02811109C00E94C61E0E94231F809162
:10371000E20084608093E200089510927F02089591
:103720000E94041A81E00E94151A089560917C029B
:1037300081E0611101C080E00E94F3190895909129
:10374000800281E0943009F080E060917C020E9468
:10375000011A089542E061EC81E00E94421E42E2BB
:1037600061EC82E00E94421E9091800281E09430E0
:1037700009F080E060917C020E94E1190895809137
:103780008202833009F461C030F48130D1F182309B
:1037900009F49EC008958A3009F48AC08B3009F478
:1037A0006FC0893009F050C080918102813209F0E8
:1037B0004BC08091850290918602029708F044C028
:1037C0008091E800877F8093E8008091E80082FF85
:1037D00037C09091F3008091F200029731F480910C
:1037E000F100813011F0863021F48091F1000E94C7
:1037F000291A8091E8008B778093E8000E94761E5A
:1038000023C080918102813AF9F48091E800877F9A
:103810008093E8008091850290918602892B61F463
:1038200068E085E692E070E00E94851D8091E800E6
:103830008B778093E800089560E090E080E0F3CF1C
:10384000809180028111C1CF089580918102813AD7
:10385000D9F78091850290918602892BA9F78091F2
:10386000E800877F8093E8008091E80080FFFCCF2C
:103870000E94261A8093F1008091E8008E77BCCFD9
:1038800080918102813201F78091850290918602B8
:10389000892BD1F68091E800877F8093E8000E9411
:1038A000761E809183020E94151A0E94F0060895E8
:1038B00080918102813241F68091E800877F809378
:1038C000E8000E94761E809184020E94391A0895B1
:1038D00080918102813A09F0B7CF8091E800877F1B
:1038E0008093E8008091E80080FFFCCF0E94461A98
:1038F000C1CF84B7877F84BF0FB6F894A895809115
:103900006000886180936000109260000FBE80E8C4
:1039100090E00FB6F89480936100909361000FBE21
:103920000E94121A08950E94C61E0E94231FE2EEF2
:10393000F0E080818460808378940E94A2210895C1
:1039400080E191E00E942E180895809180028530D8
:1039500031F480918002853019F00E94CA1A0895CE
:103960000E949F1A0E94531A882399F380917E0225
:10397000882379F30E94201D0E94F006EACF089563
:103980009A0140918702509188020E94C81C0895B4
:10399000492F55274330510519F168F4413051053D
:1039A00009F444C04230510509F445C090E080E07C
:1039B00050E040E025C04132510549F14232510505
:1039C000A9F784E490E045EA52E061157105C1F081
:1039D00086EB90E04FEE51E06130710589F0E6CF63
:1039E00099278130910581F0009729F00297F1F62F
:1039F000EEE6F1E002C0EEE9F1E0849190E0AF0183
:103A0000F901518340830895EAE7F1E0F6CF89E0B8
:103A100090E044EB51E06115710591F389E090E08D
:103A20004DEC51E06130710559F3C0CF82E190E077
:103A30004DED51E0E5CF8BE390E042EA51E0E0CF7D
:103A400080E189BD82E189BD09B400FEFDCF80918E
:103A5000D8008F7D8093D8008091E00082608093B1
:103A6000E0008091E00081FDFCCF0895AF92BF920D
:103A7000CF92DF92FF920F931F93CF93DF936C014E
:103A8000EB018A010E94951EF82E811123C00115B9
:103A9000110539F0F80180819181C81BD90BC80E3E
:103AA000D91EB12CA12C2097A9F08091E80085FDAA
:103AB00022C08091E8008E778093E80001151105FF
:103AC000A1F0F80180819181A80EB91EB182A08277
:103AD00085E0F82E8F2DDF91CF911F910F91FF90F0
:103AE000DF90CF90BF90AF9008950E94951E8823DD
:103AF000D1F2F82EEFCFF60181916F018093F100A2
:103B00002197FFEFAF1ABF0ACECFFC018091870249
:103B10009091880286179707A0F06115710529F426
:103B20009091E8009E779093E80090E06115710510
:103B300051F4911108C08091E80082FF34C080E008
:103B40000895BC01F2CF809180028823C1F18530B5
:103B5000C1F18091E80083FD30C08091E80082FDD2
:103B6000EACF8091E80080FFE1CF8091F3002091BF
:103B7000F200382F6115710519F02830310558F021
:103B800091E02830310509F090E02091E8002E778F
:103B90002093E800CBCF81918093F10061507109AF
:103BA0002F5F3F4FE7CF80918002882341F085301F
:103BB00041F08091E80083FFBECF81E0089582E06C
:103BC000089583E00895FC01809187029091880216
:103BD00086179707A0F06115710529F48091E80018
:103BE0008E778093E80090E06115710551F4911192
:103BF00008C08091E80082FF35C080E00895BC01D4
:103C0000F2CF809180028823C9F18530C9F180917B
:103C1000E80083FD31C08091E80082FDEACF809109
:103C2000E80080FFE1CF8091F3002091F200382F6F
:103C30006115710519F02830310558F091E02830F0
:103C4000310509F090E08091E8008E778093E800DC
:103C5000CBCF84918093F1003196615071092F5F31
:103C60003F4FE6CF80918002882341F0853041F0BC
:103C70008091E80083FFBDCF81E0089582E0089540
:103C800083E00895982F973028F08F708093E90093
:103C900081E008959093E900242F762F50E0981743
:103CA00031F07091EC002091ED005091F00021FD79
:103CB00002C09F5FE8CF3091EB003E7F3093EB0076
:103CC0003091ED003D7F3093ED003091EB0031609D
:103CD0003093EB007093EC002093ED005093F000D4
:103CE0002091EE0027FDE5CF80E0089580918102CC
:103CF00087FF13C08091E80082FF06C08091E80032
:103D00008B778093E80004C0809180028111F2CF0C
:103D10000895809180028823D9F38091E80080FF84
:103D2000F8CF8091E8008E77ECCF2091E4003091BD
:103D3000E50095E6A9012091EC00822F817020FF1B
:103D400006C08091E80080FF06C080E008952091C1
:103D5000E80022FD1AC080918002882389F0853016
:103D600089F08091EB0085FD0FC02091E400309137
:103D7000E50042175307F9F29150E1F684E0089507
:103D800082E0089583E0089581E008950E94351F40
:103D90000E943D1FE0EEF0E0808181608083E8EDCD
:103DA000F0E080818F77808319BCA7EDB0E08C9123
:103DB0008E7F8C9380818F7E808310927F02089506
:103DC0000F931F93CF93DF930E94351F0E943D1FD7
:103DD000C8EDD0E088818F77888388818068888368
:103DE00088818F7D888319BC1092800210927C029A
:103DF00010927E0210927D0200EE10E0F8018081A8
:103E00008B7F808388818160888342E060E080E0EE
:103E10000E94421EE1EEF0E080818E7F8083E2EE20
:103E2000F0E0808181608083808188608083F801F8
:103E300080818E7F8083888180618883DF91CF91AC
:103E40001F910F910895E8EDF0E080818F7E8083CF
:103E5000E7EDF0E080818160808384E082BF81E0D3
:103E600080937F020E94E01E0895E8EDF0E08081DB
:103E70008E7F80831092E20008951092DA001092F3
:103E8000E10008951F920F920FB60F9211242F9305
:103E90003F934F935F936F937F938F939F93AF93D2
:103EA000BF93EF93FF938091E10082FF0BC080915D
:103EB000E20082FF07C08091E1008B7F8093E100E8
:103EC0000E94A1218091DA0080FF19C08091D80062
:103ED00080FF15C08091DA008E7F8093DA00809198
:103EE000D90080FF96C080E189BD82E189BD09B417
:103EF00000FEFDCF81E0809380020E947F1B8091B5
:103F0000E10080FF19C08091E20080FF15C0809120
:103F1000E2008E7F8093E2008091E20080618093D6
:103F2000E2008091D80080628093D80019BC85E0BF
:103F3000809380020E94961B8091E10084FF2BC039
:103F40008091E20084FF27C080E189BD82E189BDC4
:103F500089B5982F917080FFFBCF8091D8008F7D1D
:103F60008093D8008091E1008F7E8093E100809162
:103F7000E2008F7E8093E2008091E2008160809376
:103F8000E20080917C02882309F449C084E0809398
:103F900080020E949F1B8091E10083FF29C08091D5
:103FA000E20083FF25C08091E100877F8093E100DC
:103FB00082E08093800210927C028091E1008E7FEB
:103FC0008093E1008091E2008E7F8093E2008091F7
:103FD000E20080618093E20042E060E080E00E94C5
:103FE000421E8091F00088608093F0000E94901B38
:103FF000FF91EF91BF91AF919F918F917F916F91C1
:104000005F914F913F912F910F900FBE0F901F9096
:10401000189519BC109280020E948D1B70CF809160
:10402000E30087FD93E090938002B3CF1F920F923D
:104030000FB60F9211242F933F934F935F936F937B
:104040007F938F939F93AF93BF93CF93DF93EF9320
:10405000FF93D091E900DF708091EC00C82FC17010
:1040600080FDC0E81092E9008091F000877F809386
:10407000F00078940E945A201092E9008091F0009C
:1040800088608093F000CD2BCF70C093E900FF9142
:10409000EF91DF91CF91BF91AF919F918F917F91E0
:1040A0006F915F914F913F912F910F900FBE0F90A5
:1040B0001F901895AAE2B0E0E0E6F0E20C94E62149
:1040C00081E892E02091F100FC012193CF01F2E020
:1040D00089389F07B9F70E94BF1B8091E80083FFD2
:1040E0001EC180918102909182029A3008F017C11E
:1040F000E92FF0E0E753FD4D0C94D121803899F081
:10410000823809F00CC1809185028F70873008F0E9
:1041100006C18093E9008091EB0085FB882780F938
:104120001092E90006C080917D0290917E0291116B
:1041300082609091E800977F9093E8008093F1006F
:104140001092F1008091E8008E77E5C0882309F491
:10415000D3C0823009F0E3C0809183028111D6C0C0
:10416000809185028F702FEF280F263008F0D7C07E
:104170008093E9002091EB0020FFC8C0933031F418
:104180008091EB0080628093EB00C0C09091EB00C7
:1041900090619093EB0021E030E001C0220F8A95FE
:1041A000EAF72093EA001092EA008091EB00886021
:1041B000EACF8111B4C0109183021F778091E30090
:1041C0008078812B8093E3008091E800877F809343
:1041D000E8000E94761E8091E80080FFFCCF80916D
:1041E000E30080688093E30082E0111183E0809314
:1041F000800295C08058823008F091C0809183027F
:10420000909184028C3D23E09207A1F583E08A839C
:104210008AE289834FB7F894DE01139620E03EE0EE
:1042200051E2E32FF0E050935700E49120FF03C0E8
:10423000E295EF703F5FEF708E2F90E0EA30C0F0B4
:10424000C7968D939D932F5F243159F74FBF80916F
:10425000E800877F8093E8006AE270E0CE01019673
:104260000E94851D8091E8008B778093E80057C0FD
:10427000C096E7CF6091850270918602AE014F5FD4
:104280005F4F0E94C01CBC01892B09F448C090916B
:10429000E800977F9093E80089819A810E94E31D4E
:1042A000E1CF8038E1F58091E800877F8093E800D6
:1042B00080917C028093F10045CF811130C09091B4
:1042C0008302923060F58091E800877F8093E80058
:1042D00090937C020E94761E80917C02882311F0CC
:1042E00084E005C08091E30087FDFACF81E08093F0
:1042F00080020E94AA1B13C080918302813079F44E
:1043000081E0933009F080E080937E021092E90012
:104310008091E800877F8093E8000E94761E80915C
:10432000E80083FF0AC08091E800877F8093E8005F
:104330008091EB0080628093EB00AA96E3E00C94FE
:1043400002220895CF93809180028823A1F0C0912A
:10435000E900CF709091EC00892F817090FD80E88A
:10436000C82B1092E9008091E80083FD0E945A203A
:10437000CF70C093E900CF91089597FB072E16F4F4
:10438000009407D077FD09D00E940E2207FC05D0CB
:104390003EF4909581959F4F0895709561957F4F5C
:1043A0000895EE0FFF1F0590F491E02D09942F92D0
:1043B0003F924F925F926F927F928F929F92AF92B5
:1043C000BF92CF92DF92EF92FF920F931F93CF9302
:1043D000DF93CDB7DEB7CA1BDB0B0FB6F894DEBF99
:1043E0000FBECDBF09942A88398848885F846E84BF
:1043F0007D848C849B84AA84B984C884DF80EE8009
:10440000FD800C811B81AA81B981CE0FD11D0FB611
:10441000F894DEBF0FBECDBFED010895AA1BBB1BF4
:1044200051E107C0AA1FBB1FA617B70710F0A61BB4
:10443000B70B881F991F5A95A9F780959095BC01D5
:10444000CD010895FB01DC0104C08D91019080191C
:1044500021F441505040C8F7881B990B0895FB0187
:10446000DC0102C001900D9241505040D8F70895F0
:10447000F999FECF92BD81BDF89A992780B508952C
:10448000A8E1B0E042E050E00C947C22DC01A40FF3
:10449000B51F4150504048F0CB01840F951F2E911D
:1044A0000E94572241505040D0F70895262FF99985
:1044B000FECF92BD81BDF89A019700B4021639F083
:1044C0001FBA20BD0FB6F894FA9AF99A0FBE089554
:1044D0000396272F0E9457220E945622252F0E94C2
:1044E0005722242F0C9457220196272F0E945722DF
:1044F0000C945622DC01CB01FC01F999FECF06C0D9
:10450000F2BDE1BDF89A319600B40D924150504091
:10451000B8F70895F894FFCFDC04DC041A051A05F7
:104520007E059A050B050B059F0510061F061F0645
:10453000E211EF11F411F811FA11FC11FE11001241
:10454000CB133F14D3139D13A113D713A513DB1360
:10455000E713B1133814B513EB13B913EF13171492
:10456000BD13F3131E14C313F9130114A913DF139E
:10457000AD13E313C713FD130D142714361497134B
:10458000CF13461407180D18F61701181318191829
:104590001F187E20A6208F21A6208F21D920FA2047
:0645A0008F2151215D2175
:1045A60012023202280850011E0A140100000100FE
:1045B600361A691B621B5B1B541BE200E900EA000A
:1045C600B500B600B700CD008301CC008A01920188
:1045D60094012102230224022502260227022A022E
:1045E600B300B4006F0070009F01CB019F02A002D0
:1045F600818283E200E900EA00B500B600B700CD8B
:10460600008301CC008A0192019401210223022435
:10461600022502260227022A02B300B4006F0070A8
:10462600009F01CB019F02A002818283F4F5F691DF
:0246360090945E
:00000001FF
